{
  "_format": "hh-sol-artifact-1",
  "contractName": "RPS",
  "sourceName": "contracts/RPS.sol",
  "abi": [
    {
      "anonymous": false,
      "inputs": [
        {
          "indexed": true,
          "internalType": "uint8",
          "name": "my",
          "type": "uint8"
        },
        {
          "indexed": true,
          "internalType": "uint8",
          "name": "pc",
          "type": "uint8"
        },
        {
          "indexed": true,
          "internalType": "enum RPS.State",
          "name": "state",
          "type": "uint8"
        },
        {
          "indexed": false,
          "internalType": "address",
          "name": "player",
          "type": "address"
        },
        {
          "indexed": false,
          "internalType": "uint256",
          "name": "amount",
          "type": "uint256"
        }
      ],
      "name": "Game",
      "type": "event"
    },
    {
      "inputs": [],
      "name": "getHistory",
      "outputs": [
        {
          "components": [
            {
              "internalType": "enum RPS.State",
              "name": "state",
              "type": "uint8"
            },
            {
              "internalType": "uint256",
              "name": "money",
              "type": "uint256"
            }
          ],
          "internalType": "struct RPS.History[]",
          "name": "",
          "type": "tuple[]"
        }
      ],
      "stateMutability": "view",
      "type": "function"
    },
    {
      "inputs": [
        {
          "internalType": "uint8",
          "name": "option",
          "type": "uint8"
        }
      ],
      "name": "play",
      "outputs": [],
      "stateMutability": "payable",
      "type": "function"
    },
    {
      "inputs": [],
      "name": "random",
      "outputs": [
        {
          "internalType": "uint8",
          "name": "",
          "type": "uint8"
        }
      ],
      "stateMutability": "view",
      "type": "function"
    },
    {
      "stateMutability": "payable",
      "type": "receive"
    }
  ],
  "bytecode": "0x60806040526000600160006101000a81548160ff021916908360ff160217905550655af3107a400060025534801561003657600080fd5b50610b52806100466000396000f3fe6080604052600436106100385760003560e01c806353a04b05146100445780635ec01e4d14610060578063aa15efc81461008b5761003f565b3661003f57005b600080fd5b61005e6004803603810190610059919061058e565b6100b6565b005b34801561006c57600080fd5b50610075610407565b60405161008291906105ca565b60405180910390f35b34801561009757600080fd5b506100a0610444565b6040516100ad9190610753565b60405180910390f35b60025434116100fa576040517f08c379a00000000000000000000000000000000000000000000000000000000081526004016100f1906107d2565b60405180910390fd5b8060028160ff161115610142576040517f08c379a00000000000000000000000000000000000000000000000000000000081526004016101399061083e565b60405180910390fd5b60006064600160009054906101000a900460ff166064610162919061088d565b60ff1660023461017291906108c2565b61017c91906108c2565b6101869190610933565b9050804710156101cb576040517f08c379a00000000000000000000000000000000000000000000000000000000081526004016101c2906109b0565b60405180910390fd5b6000806101d6610407565b905060008560ff168260ff1603610246576002846101f49190610933565b92503373ffffffffffffffffffffffffffffffffffffffff166108fc849081150290604051600060405180830381858888f1935050505015801561023c573d6000803e3d6000fd5b50600290506102c4565b8560ff16600360018461025991906109d0565b6102639190610a05565b60ff16036102be578392503373ffffffffffffffffffffffffffffffffffffffff166108fc849081150290604051600060405180830381858888f193505050501580156102b4573d6000803e3d6000fd5b50600090506102c3565b600190505b5b6102cc610524565b81816000019060028111156102e4576102e3610611565b5b908160028111156102f8576102f7610611565b5b81525050848160200181815250506000803373ffffffffffffffffffffffffffffffffffffffff1673ffffffffffffffffffffffffffffffffffffffff16815260200190815260200160002081908060018154018082558091505060019003906000526020600020906002020160009091909190915060008201518160000160006101000a81548160ff0219169083600281111561039957610398610611565b5b02179055506020820151816001015550508160028111156103bd576103bc610611565b5b8360ff168860ff167ffca7d20fb25d8f04053c333cff4bff4c2b5641aa1291f2e3315b5652df7197a433896040516103f6929190610a86565b60405180910390a450505050505050565b600060034260405160200161041c9190610ad0565b6040516020818303038152906040528051906020012060001c61043f9190610aeb565b905090565b60606000803373ffffffffffffffffffffffffffffffffffffffff1673ffffffffffffffffffffffffffffffffffffffff168152602001908152602001600020805480602002602001604051908101604052809291908181526020016000905b8282101561051b57838290600052602060002090600202016040518060400160405290816000820160009054906101000a900460ff1660028111156104ec576104eb610611565b5b60028111156104fe576104fd610611565b5b8152602001600182015481525050815260200190600101906104a4565b50505050905090565b60405180604001604052806000600281111561054357610542610611565b5b8152602001600081525090565b600080fd5b600060ff82169050919050565b61056b81610555565b811461057657600080fd5b50565b60008135905061058881610562565b92915050565b6000602082840312156105a4576105a3610550565b5b60006105b284828501610579565b91505092915050565b6105c481610555565b82525050565b60006020820190506105df60008301846105bb565b92915050565b600081519050919050565b600082825260208201905092915050565b6000819050602082019050919050565b7f4e487b7100000000000000000000000000000000000000000000000000000000600052602160045260246000fd5b6003811061065157610650610611565b5b50565b600081905061066282610640565b919050565b600061067282610654565b9050919050565b61068281610667565b82525050565b6000819050919050565b61069b81610688565b82525050565b6040820160008201516106b76000850182610679565b5060208201516106ca6020850182610692565b50505050565b60006106dc83836106a1565b60408301905092915050565b6000602082019050919050565b6000610700826105e5565b61070a81856105f0565b935061071583610601565b8060005b8381101561074657815161072d88826106d0565b9750610738836106e8565b925050600181019050610719565b5085935050505092915050565b6000602082019050818103600083015261076d81846106f5565b905092915050565b600082825260208201905092915050565b7f4d696e20302e303030312074424e420000000000000000000000000000000000600082015250565b60006107bc600f83610775565b91506107c782610786565b602082019050919050565b600060208201905081810360008301526107eb816107af565b9050919050565b7f6f6e6c7920302d32000000000000000000000000000000000000000000000000600082015250565b6000610828600883610775565b9150610833826107f2565b602082019050919050565b600060208201905081810360008301526108578161081b565b9050919050565b7f4e487b7100000000000000000000000000000000000000000000000000000000600052601160045260246000fd5b600061089882610555565b91506108a383610555565b9250828203905060ff8111156108bc576108bb61085e565b5b92915050565b60006108cd82610688565b91506108d883610688565b92508282026108e681610688565b915082820484148315176108fd576108fc61085e565b5b5092915050565b7f4e487b7100000000000000000000000000000000000000000000000000000000600052601260045260246000fd5b600061093e82610688565b915061094983610688565b92508261095957610958610904565b5b828204905092915050565b7f62616e6b72757074000000000000000000000000000000000000000000000000600082015250565b600061099a600883610775565b91506109a582610964565b602082019050919050565b600060208201905081810360008301526109c98161098d565b9050919050565b60006109db82610555565b91506109e683610555565b9250828201905060ff8111156109ff576109fe61085e565b5b92915050565b6000610a1082610555565b9150610a1b83610555565b925082610a2b57610a2a610904565b5b828206905092915050565b600073ffffffffffffffffffffffffffffffffffffffff82169050919050565b6000610a6182610a36565b9050919050565b610a7181610a56565b82525050565b610a8081610688565b82525050565b6000604082019050610a9b6000830185610a68565b610aa86020830184610a77565b9392505050565b6000819050919050565b610aca610ac582610688565b610aaf565b82525050565b6000610adc8284610ab9565b60208201915081905092915050565b6000610af682610688565b9150610b0183610688565b925082610b1157610b10610904565b5b82820690509291505056fea26469706673582212207120da5a9fad5a051c49cda4660dd1cbc1a820d9cee4521d6fd074f91727851a64736f6c63430008120033",
  "linkReferences": {},
  "deployedLinkReferences": {}
}